:020000020000FC
:1000000000E10EBF0FEF0DBF0FEF0ABB0FEF04BBF8
:1000100000E001BB03E003BF07EE009341010FEFD7
:100020000093420103E8009343010AEB009344016B
:100030000AEB0093450103E8009346010FEF00939C
:10004000470107EE0093480107EE009349010FEFC7
:1000500000934A010FEE00934B010EED00934C010B
:100060000EEB00934D0103E800934E010FEF009358
:100070004F0107EE0093500107EE009351010FEF7F
:10008000009352010BED0093530102EB00935401D6
:100090000AEA009355010BED009356010FEF009310
:1000A000570107EE0093580107EE009359010FEF37
:1000B00000935A010FEF00935B010AEA00935C0181
:1000C0000AEA00935D0107EC00935E010FEF0093D5
:1000D0005F0107EE0093600107EE009361010FEFEF
:1000E000009362010FEE009363010EEC0093640134
:1000F0000EEA0093650103E8009366010FEF009399
:10010000670107EE0093680107EE009369010FEFA6
:1001100000936A010FEF00936B010AE800936C01F2
:100120000AEA00936D0107EB00936E010FEF009355
:100130006F0107EE0093700107EE009371010FEF5E
:100140000093720107EC009373010AEA00937401B3
:100150000AEA0093750107EB009376010FEF009315
:10016000770107EE0093780107EE009379010FEF16
:1001700000937A010FEB00937B0102EB00937C016B
:100180000EEA00937D010FE900937E010FEF0093CB
:100190007F0107EE0093800107EE009381010FEFCE
:1001A0000093820107ED009383010AEA0093840122
:1001B0000AEA0093850107ED009386010FEF009393
:1001C000870107EE0093880107EE009389010FEF86
:1001D00000938A010BED00938B010AEA00938C01D6
:1001E0000AEA00938D0107EC00938E010FEF009354
:1001F0008F0107EE0093900101E000930001F1E010
:10020000E1E00FEF0193E134E8F300E00093130124
:1002100001E00093140102E00093150103E0009354
:1002200016010027CC27C43108F0C2E101E0009399
:1002300000012AD0A5D0239524FDE89424FD22278F
:100240000091000101FDC25002FDC39502FDC3955E
:1002500003FD01C0E8CFD4E1DC1B01E00093000105
:10026000B3D00027039528D05DD00D1708F0BBD080
:1002700007FDAAD0F7CF03FDBFCF1ED01DD01CD0E5
:100280001BD043D00395F7CF0F931F93F1E0E1E428
:100290001C2F103029F01A951A9508E0E00FF9CFBD
:1002A00010E81BBB019105BB23D010FD02C01695C1
:1002B000F8CF1F910F9108950F931F932F933F93A2
:1002C000F1E0E1E000E8222730E8119117FD230F6B
:1002D000313011F03695F9CF0BBB25BB09D000FDAD
:1002E00002C00695F0CF3F912F911F910F91089575
:1002F0001F932F9320E010E013951F3FE9F72395FC
:100300002530C9F72F911F9108951F932F9320E057
:1003100010E013951F3FE9F723952F3FC9F72F9161
:100320001F9108950F931F9346F10091000110B3A0
:10033000011719F1013039F0083029F0023041F08D
:10034000043031F01AC015FF0CC016FF0EC015C0E6
:1003500014FF03C017FF0DC010C001E0009300019F
:100360000BC002E00093000107C004E0009300010D
:1003700003C008E00093000168941F910F91089555
:100380000F931F93F6F00091000110B30117C9F00D
:1003900015FF0BC016FF0DC014FF03C017FF0DC0E3
:1003A00010C001E0009300010BC002E000930001C7
:1003B00007C004E00093000103C008E000930001BF
:1003C00068941F910F910895F1E0E1E0E2B7E395A1
:1003D000E03410F0E054FCCF008107FFF7CF00E4D9
:1003E00000830027089500274F933F932F931F9377
:1003F000F1E0E1E01127222733274427E894019117
:10040000E234A1F007FDFBCF003419F44E2F4A95DA
:10041000F6CF011718F0102F2E2F2A950395EA9585
:100420000193013061F73E2F3A95E9CFE22F0FEFAC
:100430000083E32F0091000100FD06C001FD1FC0F5
:1004400002FD39C003FD52C0E13099F0E93089F076
:10045000E13179F0E93169F0E13259F0E93249F0FE
:10046000E13339F0E93329F0EA9500E03081008387
:1004700057C007E0E00F00E03081008351C0E13059
:10048000A1F0E23091F0E33081F0E43071F0E5303A
:1004900061F0E63051F0E73041F0E83031F008E04B
:1004A000E01B00E0308100833BC008E3E00F00E088
:1004B0003081008335C0E933A1F0EA3391F0EB33AA
:1004C00081F0EC3371F0ED3361F0EE3351F0EF3445
:1004D00041F0E03431F008E0E00F00E030810083CB
:1004E0001FC0E85300E0308100831AC0E83099F063
:1004F000E03189F0E83179F0E03269F0E83259F022
:10050000E03349F0E83339F0E03429F0E39500E0D6
:100510003081008305C0E75000E03081008300C0D7
:10052000002736FFA8CE4E1721F4E22F1395108333
:0C05300000E81F912F913F914F9108951A
:00000001FF
